:020000040800F2
:1000000098750020E10200087901010859CD000827
:1000100031D70008E1140008492001080000000061
:1000200000000000000000000000000001080108BE
:100030002123000800000000F1010108E108010887
:10004000FF020008FF020008FF020008FF0200088C
:10005000FF020008FF020008FF020008FF0200087C
:10006000FF020008FF020008FF020008FF0200086C
:10007000FF020008FF020008FF020008FF0200085C
:10008000FF020008FF020008FF02000861230008C9
:1000900099230008FF020008FF020008FF02000881
:1000A000FF020008FF020008FF020008FF0200082C
:1000B000390B0108FF020008FF020008FF020008D8
:1000C000FF020008FF020008FF020008FF0200080C
:1000D000FF020008FF020008FF020008FF020008FC
:1000E000FF020008FF02000800000000FF020008F5
:1000F000FF020008FF020008FF0200086116000866
:10010000FF020008FF020008FF020008FF020008CB
:10011000FF020008FF020008FF020008FF020008BB
:10012000FF020008FF020008FF020008FF020008AB
:10013000FF020008FF020008FF020008FF0200089B
:1001400000000000000000000000000000000000AF
:10015000FF020008FF020008FF020008FF0200087B
:10016000FF020008FF020008FF020008FF0200086B
:10017000FF020008FF020008FF0200080000000064
:10018000FF020008FF020008110D0108FF0200082D
:10019000FF020008FF020008FF020008FF0200083B
:1001A000FF020008FF020008FF0200080000000034
:1001B000FF020008FF020008FF020008FF0200081B
:1001C000FF020008FF02000800000000000000001D
:1001D0000000000000000000FF0200080000000016
:1001E000000000000000000000000000000000000F
:1001F0000000000000000000FF020008FF020008ED
:10020000FF020008FF02000800000000FF020008D3
:10021000FF020008FF020008FF020008FF020008BA
:10022000FF02000800000000FF02000800000000BC
:10023000FF020008FF02000800000000FF020008A3
:10024000FF020008FF020008FF020008FF0200088A
:10025000FF020008FF020008FF020008FF0200087A
:10026000FF020008FF020008FF020008FF0200086A
:10027000FF020008FF020008FF0200080000000063
:10028000FF020008FF020008FF020008FF0200084A
:1002900000000000FF020008FF020008000000004C
:1002A00000000000FF020008FF020008FF02000833
:1002B000FF020008FF020008FF020008FF0200081A
:1002C000FF020008FF020008FF020008DFF80CD060
:1002D00000F042FE00480047092F010898750020F1
:1002E000074880470748804707480047FEE7FEE782
:1002F000FEE7FEE7FEE7FEE7FEE7FEE7FEE7FEE7D6
:1003000039230008D1090108CD0200082DE9F05F6A
:100310000546002092469B46884606468146402474
:100320001BE0284641464746224600F0A8F85346BF
:100330005A46C01A914110D311461846224600F081
:100340008FF82D1A67EB01084F4622460120002145
:1003500000F086F817EB00094E41201EA4F10104BD
:10036000DFDC484631462A464346BDE8F09F40EA76
:1003700001039B0703D009E008C9121F08C0042A23
:10038000FAD203E011F8013B00F8013B521EF9D20A
:100390007047D2B201E000F8012B491EFBD2704732
:1003A0000022F6E710B513460A4604461946FFF741
:1003B000F0FF204610BD421C10F8011B0029FBD1A4
:1003C000801A704730B504460020034600E05B1CED
:1003D000934203D2E05CCD5C401BF8D030BD30B519
:1003E00005460020034600E05B1C934205D2EC5C0E
:1003F000C85C201A01D1002CF6D130BD0FB400B575
:100400008DB010A909900B9000914FF0FF300A9029
:1004100000200C9005480690054807906A4609A8F8
:100420000F9900F0B3FB0DB05DF814FBA90B0008A9
:10043000C70B000830B50B460146002020220124DE
:1004400009E021FA02F59D4205D303FA02F5491BA2
:1004500004FA02F52844151EA2F10102F1DC30BDB8
:10046000202A04DB203A00FA02F100207047914074
:10047000C2F1200320FA03F3194390407047202A69
:1004800004DB203A21FA02F00021704721FA02F33E
:10049000D040C2F1200291400843194670472DE92F
:1004A000FF4F1C4681B00021D4E9016791464FF00F
:1004B000FF358A468846A1696D1C02988847216AE3
:1004C000834688470028F6D1BBF1FF3F0CD026F4C5
:1004D000C066002F1ADD700615D5BBF12B0F0AD0B0
:1004E000BBF12D0F0FD104E04FF0FF3005B0BDE898
:1004F000F08F46F48066A1696D1C029888477F1EC4
:100500008346002F02DDBBF1300F03D0B9F1000F9D
:100510002AD025E0A1696D1C46F400767F1E029862
:1005200088478346002F05DDBBF1780F06D0BBF16D
:10053000580F03D0B9F1000F10D011E0B9F1000F3E
:1005400002D0B9F1100F0BD1A1696D1C26F4007611
:100550007F1E029888478346102000E008208146CD
:100560004FEAE970009017E00A20F8E74346AAFB3B
:10057000092803FB0980DDF800C07F1E0AFB0C017F
:1005800012EB0B0A41EBEB78A16946F4007605F11A
:100590000105029888478346002F06DD49465846E4
:1005A00000F009FD5FEA000BE0D5E1690298884799
:1005B000B00502D46FF0010098E7F00718D170067B
:1005C00010D57005514605D50023D1EB030163EB2F
:1005D000080200E042462068031D23600068C0E96D
:1005E000001205E02068011D21600068C0E900A834
:1005F00028467BE72DE9FF5F1D464FF0FF3BD5E91D
:10060000014691465F464FF00008A9697F1C01989A
:100610008847296A824688470028F6D1BAF1FF3F09
:100620000CD024F4C064002E19DD600614D5BAF194
:100630002B0F09D0BAF12D0F0ED103E0584604B0AC
:10064000BDE8F09F44F48064A9697F1C0198884745
:10065000761E8246002E02DDBAF1300F03D0B9F1CA
:10066000000F26D032E0A969761E44F400747F1C86
:10067000019888478246002E05DDBAF1780F06D032
:10068000BAF1580F03D0B9F1000F10D01EE0B9F144
:10069000000F02D0B9F1100F18D1A969761E24F409
:1006A00000747F1C019888478246102002E00820D1
:1006B00000E00A20814609E008FB0908A969761EC6
:1006C00044F400747F1C019888478246002E05DDA3
:1006D0004946504600F06FFC0028EDDAE9690198C0
:1006E0008847A00502D46FF00100A8E7E00725D1F4
:1006F000600613D5600502D5C8F1000000E0404651
:1007000029680A1D2A600968220501D5087015E0CC
:10071000220701D5088011E008600FE02868011D5C
:1007200029600068210502D580F8008006E02107D5
:1007300002D5A0F8008001E0C0F8008038467EE7CE
:100740002DE9FF5FD2E901A74FF0000891699946B2
:100750001446DDF838B0464601988847054659EA00
:100760000B0005D009E0A169761C01988847054671
:10077000216A284688470028F5D1681C03D05FEA23
:10078000CA7005D015E04FF0FF3004B0BDE8F09F0F
:100790002068011D2160D0F800800AE05FEACA707D
:1007A00001D108F8015BA169761C7F1E019888477A
:1007B0000546002F1ADD681C18D0B9F1000F0DD0C6
:1007C000E81705EBD060421120F01F0059F8221005
:1007D0002A1A012090400142E0D107E0BBF1000F4E
:1007E000DCD1216A284688470028D7D0E1690198E2
:1007F0008847BBF1000F07D1002E05DD5FEACA7004
:1008000002D1002188F80010A068B84203DDBBF1D6
:10081000000F03D017B16FF00100B6E73046B4E720
:100820002DE9FF4F087883B09946FF2805D0491C71
:100830002D2804D00024002008E000200BE0012433
:10084000F9E700EB800003EB4000491C0B78FF2B1D
:10085000F7D104B1404200230293147819461D4693
:100860002D2C01D02B2C04D1521C2D2C13D0002464
:100870000294AA461478FF2C0FD00A25A3FB057812
:1008800001FB05814FF0000C03FB0C11521CE31916
:100890004AEB0101EEE70124EAE7814453EA010053
:1008A00002D019F5C87F06DA03980021C0E90011CB
:1008B00007B0BDE8F08F0025AE4E2F46DFF8B882B6
:1008C000184600F07AFDCDE90001B9F1000002DA26
:1008D000C9F1000400E004460023A74A1AEB030B09
:1008E00042EB045A12E0E00707D02A463346384666
:1008F000414600F020FA074688462A46334610460D
:10090000194600F018FA05460E466410002CEAD18C
:10091000DDE90001B9F1000F5A46534606DA00F04E
:100920007CFA3A46434600F078FA05E000F003FA14
:100930003A46434600F0FFF9029A0AB181F00041BD
:10094000039AC2E90001B3E72DE9FF4F1F468DB0BE
:10095000D7E901464FF0FF382E2045464FF00009F9
:100960000B90B9696D1C0E988847396A8246884792
:100970000028F6D1BAF1FF3F0AD024F4D064002E4B
:1009800011DDBAF12B0F08D0BAF12D0F0BD102E017
:10099000404611B08DE744F48064B9696D1C0E982F
:1009A00088478246761E6946600501D52D2000E005
:1009B0002B208DF8000001F1010B0DF1200809E05A
:1009C000B9696D1C0E98884782460F9844F40074EC
:1009D000761E0560002E02DDBAF1300FF0D00B99C3
:1009E0008A453ED144F0800406E00F99681CA9F1C5
:1009F000010944F400740860B9696D1C761E0E98F4
:100A0000884782463028F0D02BE00B998A4505D1E3
:100A1000200603D444F08004761E18E0504616F0F9
:100A2000AFFA08B30DF11302761EAAF1300044F4B8
:100A30000074934506D20BF8010B200607D5A9F1E7
:100A4000010003E0200602D409F101008146A0055F
:100A500002D50F99681C0860B9696D1C0E9888470B
:100A60008246002ED1DC53E0002E51DDBAF1650F35
:100A700002D0BAF1450F4BD1A00549D5B9696D1C1B
:100A800024F44074761E0E9888478246002E0CDDB2
:100A90002B2804D0BAF12D0F07D144F48074B96922
:100AA0006D1C0E9888478246761EE00501D52D21E3
:100AB00000E02B2108F8011BCDF82C8021E00DF17E
:100AC0002901761E44F4007488450CD2AAF1300046
:100AD00010F0FF0088F8000002D10B99884509D971
:100AE00008F1010806E0E00501D5244801E042F2E2
:100AF0000F708146B9696D1C0E98884782460F9821
:100B00000560002E04DD504616F03AFA0028D6D1D2
:100B1000F9690E988847FF208BF8000088F80000DC
:100B20000020069007904B466A4608A906A8FFF7E2
:100B300077FEA00502D46FF001002AE714F0240F1D
:100B40000AD0E00714D1DDE906123868031D3B60C6
:100B50000068C0E900120BE0DDE9060100F039FC95
:100B60000146E00704D13868021D3A600068016060
:100B700028460EE7000014400000F03FF1D8FFFFC8
:100B8000026811441378016018467047D160044927
:100B900051610449116200211161114600F01ABA35
:100BA000810B0008AD0F0008426842B1016811F8DE
:100BB000013B23B1521EC0E90012184670470121C3
:100BC000C160881E704742685AB1C368016843B962
:100BD00083688B4205D0491E521CC0E900120020D8
:100BE00070474FF0FF3070472DE9FE4F804681EA95
:100BF0000300C00F0C46009021F0004123F0004597
:100C0000B8EB0200A94105D24046214690461C4659
:100C10000B46024623F00040104347D0270DC7F390
:100C20000A00C3F30A510290401A019040286BDA7F
:100C3000C3F3130040F4801B0098924620B10023B8
:100C4000D2EB030A63EB0B0B01985946C0F140024B
:100C50005046FFF705FC06460D4650465946019A98
:100C600000F092F910EB08006141002487EA11526C
:100C700084EAE7731A4340D0009A62B3019A012ACA
:100C80004FEA075215DC001B61EB02014FF00042F6
:100C900002EA0752CDE90042001C41F580113246BC
:100CA0002B4600F03CFB03B0BDE8F08F40462146E8
:100CB000F9E7001B61EB0201001C41F580130018ED
:100CC0005B412018A2F5001747EB030140EAD570FD
:100CD000B6196D4111E06D084FEA360645EAC07558
:100CE0004FEA0752001B61EB0201001C41F5801125
:100CF00049084FEA30000019514132462B4603B0F3
:100D0000BDE8F04F00F0FCBA00980122400000233B
:100D1000D0EB020263EBE073009821464FEAE074E7
:100D2000B8EB000061EB0401E9E783F000435BE707
:100D300081F0004158E72DE9FE4F81EA030404F0F9
:100D4000004421F0004100944FF0000B23F00043D9
:100D500050EA01045ED052EA03045BD0C3F30A54A4
:100D6000C1F30A552C44A4F2F3340194A0FB0254BD
:100D7000C1F3130141F48011C3F3130343F480134F
:100D800001FB024400FB034E840A970A44EA8154A3
:100D900047EA8357A4FB076802958D0A05FB078580
:100DA0004FEA932C04FB0C542705029D4FEA06588A
:100DB00047EA1637B5EB08056EEB070C870E920E67
:100DC00047EA811742EA8312A7FB0201B6EB0B0147
:100DD00064EB00042B0D43EA0C335E1844EB1C500B
:100DE000DA465146E7FB0201C5F313044FEA0B3321
:100DF00043EA14534FEA0432019C43EA0603A4F188
:100E00000C040294009CCDE900B400F088FA03B011
:100E1000BDE8F08F00200146F9E72DE9F04D81EAA9
:100E2000030404F0004B21F0004514464FF0000A83
:100E300023F0004150EA050220D054EA01021DD0FF
:100E4000C5F30A570246C5F31303C1F31300C1F3F8
:100E50000A5640F4801543F48013A7EB0608101BD4
:100E6000D64608F2FD3873EB050002D308F10108FD
:100E700001E092185B41B8F1000F03DA002001464F
:100E8000BDE8F08D00204FF48011064684460EE048
:100E9000171B73EB050705D3121B63EB0503064312
:100EA0004CEA010C49084FEA300092185B4150EAC5
:100EB0000107EDD152EA030012D082EA040083EA6E
:100EC0000501084305D0101BAB4106D201220023C7
:100ED00006E000224FF0004302E06FF001025310E1
:100EE0001AEB06004CEB085110EB0A0041EB0B012A
:100EF000BDE8F04D00F004BAC1F30A52C1F313018A
:100F000040F2FF3341F480119A4202DA0020014698
:100F1000704740F233439A42A2F2334202DC52421B
:100F2000FFF7ADBAFFF79CBA30B5041E71F10004AB
:100F300004DB4FF00044404264EB0101141E73F1E6
:100F4000000405DB1C464FF00043524263EB0403F0
:100F5000994208BF904230BD1CB50948009009482D
:100F600001900546009C06E0E06840F0010394E82B
:100F7000070098471034AC42F6D3FFF7ABF90000F6
:100F8000747F0108A47F0108202A06DBCB17203AD2
:100F900041FA02F043EAE07306E041FA02F3D0407E
:100FA000C2F120029140084319467047C0B24FF485
:100FB000F05100F02BBA3A2800D2303820F020024D
:100FC000412A01D3A2F13700884201D34FF0FF300C
:100FD000704700002DE9F34F8BB04FF0000801F18E
:100FE0000C000C464FF0010B46460DF1080A01902B
:100FF0006269012101989047051E2DD0252D2CD026
:10100000216A8847C0B16269012101989047216A2D
:1010100088470028F7D1411E62690198904700E097
:10102000761CA1690B988847216A88470028F7D168
:10103000E1690B988847DBE7A1690B988847074669
:10104000A84201D1761CD3E7E1690B9888477F1C41
:1010500002D1B8F1000F6FD046E1002762693D462A
:101060003946019890472A2804D1626901210198E4
:1010700090470125DFF88492626901210198904729
:10108000A0F130010A290AD24F45E5DC07EB8701C0
:1010900000EB4107303FDFD445F01005ECE7E906EF
:1010A00001D46FF000476C280AD04C2814D068286F
:1010B00015D06A280DD074281CD07A281AD01DE0CB
:1010C00062690121019890476C2802D045F004051F
:1010D00014E045F002050DE045F020050AE06269E4
:1010E000012101989047682802D045F0080505E0E5
:1010F00045F400656269012101989047C4E90157F0
:1011000065283DD019DC58287AD00CDC452837D02A
:1011100004DC252826D0412831D131E046282FD0C3
:1011200047282CD12CE05B2877D0612828D0632871
:101130007CD0642823D15AE0D0E06F2848D008DC66
:1011400066281DD067281BD0692821D06E2816D1AB
:1011500027E0702845D0732868D0752847D07828B4
:101160000DD14DE0A1690B988847054625283FF42D
:1011700069AFE1690B9888476D1C3FF46AAFB3E033
:1011800023466A466FF001000B99FFF7DDFB9EE0F6
:1011900045F040006060A80723464FF0000236D4B7
:1011A0003EE0E8077FF447AF2068011D216000683A
:1011B000290501D506701BE7290701D5068017E729
:1011C000A90703D5F117C0E9006111E706600FE731
:1011D00045F040006060A80723464FF0080216D48F
:1011E0001EE040F60E0125EA0100606016E045F0C1
:1011F00040006060A80723464FF00A0207D40FE0C2
:1012000045F040006060A80708D5234610226FF023
:1012100001000B99FFF743F959E007E0234610223C
:101220006FF001000B99FFF7E5F950E04FF000096E
:101230004F464B46632802D05B2806D040E0E806C4
:1012400001D40120A06001273AE0626901210198E0
:1012500090475E2805D14FF001096269494601981F
:101260009047216939B900210A46534643F82120A5
:10127000491C0829FADBB0B3216969B9C11700EB31
:10128000D16253110AEB830122F01F02821A01205E
:101290000B68904003430B606269012101989047FD
:1012A0005D28E8D1B9F1000F09D00020514651F86E
:1012B0002020D24341F82020401C0828F7DB02AB55
:1012C000224600976FF001000B99FFF739FA0028CA
:1012D0000CDA401C08D1BBF1000F05D04FF0FF30F5
:1012E0000DB0BDE8F08FFFE74046F9E7E90701D10F
:1012F00008F1010806444FF0000B79E6CCCCCC0C89
:1013000010B5141E73F1000408DA401C41F100010D
:1013100092185B411A4301D120F0010010BD2DE964
:10132000F04D92469B4611B1B1FA81F202E0B0FA5B
:1013300080F220329046FFF793F804460F4640EAC9
:101340000A0041EA0B0153465A46084313D011469E
:1013500053EA010019D0C8F140025046FFF78FF858
:1013600005460E46504659464246FFF779F808436F
:1013700005D0012004E020463946BDE8F08D00206C
:10138000054346EAE0762C4337430A986305E40AAE
:10139000A0EB08000022FD0A44EA47540A3002D5B7
:1013A00000200146E9E7010510196941DDE908451A
:1013B00000196941BDE8F04DA2E70EB540F2334295
:1013C00002920022CDE900221346FFF7A8FF03B0E6
:1013D00000BD01F0004330B421F0004150EA0102A9
:1013E00006D00A0DA2F56072C1F31301002A02DCD7
:1013F00030BC00207047440F44EAC104C100E0182B
:1014000030BC00EBC25000F015B800007F2801D9B5
:10141000002208E0064A02EB5002C007127800D111
:10142000120902F00F0201209040084070470000AE
:10143000D47601080029A8BF7047401C490008BFA6
:1014400020F00100704710B4B0FA80FC00FA0CF0F4
:1014500050EA010404BF10BC704749B1CCF120042C
:1014600021FA04F411FA0CF118BF012121430843B9
:10147000A3EB0C01CB1D4FEA00614FEA102042BFE5
:10148000002010BC704700EBC35010440029A4BFDB
:1014900010BC7047401C490008BF20F0010010BC80
:1014A000704730B58C1810F8012B12F00F0301D1E2
:1014B00010F8013B120906D110F8012B03E010F8D7
:1014C000015B01F8015B5B1EF9D101E001F8013B12
:1014D000521EFBD1A142E6D3002030BD0000000027
:1014E000FFE7FEE70000000080B540F28030C2F266
:1014F000000011F029FB80BD80B582B00190009101
:101500000199009A40F28030C2F200000CF0F4FE23
:1015100002B080BD0000000080B540F22040C2F261
:10152000000011F011FB80BD80B582B001900091E8
:101530000199009A40F22040C2F200000CF0DCFE5B
:1015400002B080BD0000000080B582B0019001981B
:1015500011F0D6FA02B080BD80B590B00E900D911A
:101560000C9203A82421FEF71BFF0E9840B1FFE761
:101570000C9828B1FFE70D98B0F5006F04D3FFE792
:1015800001208DF83F0067E00E9811F0B9FA029043
:10159000029870B3FFE702990868013008600D985F
:1015A0000299C86106F07CFA0299086202990C9AC5
:1015B000106852680A64C8630E9805F031F8029901
:1015C00088620E98D0F89C00029988630298806A1D
:1015D00070B9FFE70299C8680130C8600E98029997
:1015E00011F05AFA0E9805F01BF802998862FFE78D
:1015F000FFE70D98039000200490059008210691C4
:101600000790089009900A900B900E980C9A03A9E5
:1016100004F0CEFC8DF807000298C0B1FFE79DF8FA
:101620000700029948620E98D0F89C0002998863DE
:101630009DF8070028B9FFE7029948680130486023
:1016400004E00299886801308860FFE7FFE79DF8B1
:1016500007008DF83F00FFE79DF83F0010B080BD08
:1016600080B540F20030C2F2000002F0C5FA80BD41
:1016700083B002900298016801201022C4F2020295
:101680009142009000F0A380FFE7029801680120DA
:101690002822C4F202029142009000F09880FFE7F5
:1016A0000298016801204022C4F202029142009097
:1016B00000F08D80FFE70298016801205822C4F2F3
:1016C00002029142009000F08280FFE702980168D8
:1016D00001207022C4F202029142009077D0FFE70D
:1016E0000298016801208822C4F20202914200900F
:1016F0006DD0FFE7029801680120A022C4F2020227
:101700009142009063D0FFE7029801680120B8225F
:10171000C4F202029142009059D0FFE7029801689A
:10172000012040F21042C4F20202914200904ED0D9
:10173000FFE702980168012040F22842C4F2020249
:101740009142009043D0FFE702980168012040F2E7
:101750004042C4F202029142009038D0FFE7029862
:101760000168012040F25842C4F202029142009006
:101770002DD0FFE702980168012040F27042C4F2C8
:1017800002029142009022D0FFE7029801680120F6
:1017900040F28842C4F202029142009017D0FFE763
:1017A00002980168012040F2A042C4F20202914274
:1017B00000900CD0FFE7029800684FF64831CBF656
:1017C000FD710844B0FA80F040090090FFE70098EE
:1017D000C00740B3FFE70298007810384AF6AB2103
:1017E000CAF6AA21A0FB011000090190019800F09F
:1017F000070147F2F070C0F60100405C0299C8652D
:101800000198042807D3FFE702990868042262F3CD
:101810000900886506E00299086840F2FF329043AB
:101820008865FFE705E00299086820F0FF008865F9
:10183000FFE70298806D03B07047000000000000D1
:1018400084B0039003980068019003980168012018
:1018500045F20842C5F60202914200904ED0FFE7E1
:1018600003980168012045F21C42C5F6020291422C
:10187000009043D0FFE703980168012045F2304211
:10188000C5F602029142009038D0FFE70398016844
:10189000012045F24442C5F60202914200902DD04B
:1018A000FFE703980168012045F25842C5F602029D
:1018B0009142009022D0FFE703980168012045F291
:1018C0006C42C5F602029142009017D0FFE70398E0
:1018D0000168012045F28042C5F602029142009063
:1018E0000CD0FFE7039800684AF66C31CAF2FD712C
:1018F0000844B0FA80F040090090FFE70098C00764
:1019000010B3FFE70398007808384CF6CD41CCF6C9
:10191000CC41A0FB011000090290029945F600009D
:10192000C5F6020000EB810003990866039945F6AD
:101930008000C5F602004866029800F01F010120F1
:1019400088400399886635E00398007810384AF695
:10195000AB21CAF6AA21A0FB011000090290019850
:1019600040F2B841C4F2020188420CD8FFE7019866
:1019700040F21041C4F20201884204D3FFE702980A
:1019800008300290FFE7029940F60000C4F202001E
:1019900000EB810003990866039940F68000C4F2C9
:1019A00002004866029800F01F0101208840039958
:1019B0008866FFE704B0704783B002900298007910
:1019C00001900198002800F08A80FFE7019808281C
:1019D00000F28580FFE702980168012045F2084285
:1019E000C5F60202914200904ED0FFE702980168CE
:1019F000012045F21C42C5F602029142009043D0FC
:101A0000FFE702980168012045F23042C5F6020264
:101A10009142009038D0FFE702980168012045F21A
:101A20004442C5F60202914200902DD0FFE7029891
:101A30000168012045F25842C5F602029142009029
:101A400022D0FFE702980168012045F26C42C5F6FA
:101A500002029142009017D0FFE70298016801202E
:101A600045F28042C5F60202914200900CD0FFE799
:101A7000029800684AF66C31CAF2FD710844B0FA67
:101A800080F040090090FFE70098C00780B1FFE7B1
:101A9000019945F6FC00C5F6020000EB81000299B1
:101AA000C866029945F64010C5F6020008670FE0C7
:101AB000019940F6FC00C4F2020000EB810002999B
:101AC000C866029940F64010C4F202000867FFE7BA
:101AD0000198411E0120884002994867FFE703B042
:101AE000704700000000000085B0049000208DF8D1
:101AF0000F000498806918BBFFE70498806A029081
:101B000003281BD80299DFE801F0020D021804989F
:101B100090F82F00C00720B1FFE701208DF80F00DB
:101B2000FFE70CE00498C06AB0F1C07F04D1FFE782
:101B300001208DF80F00FFE701E000E0FFE747E03C
:101B400004988069B0F5005F26D1FFE70498806AA9
:101B5000019003281ED80199DFE801F00206021166
:101B600001208DF80F0016E0049890F82F00C007B0
:101B700020B1FFE701208DF80F00FFE70BE004988C
:101B8000C06AB0F1C07F04D1FFE701208DF80F00DB
:101B9000FFE700E0FFE71AE00498806A009003285E
:101BA00004D3FFE70098032804D00EE001208DF84D
:101BB0000F000BE0049890F82F00C00720B1FFE75A
:101BC00001208DF80F00FFE700E0FFE7FFE7FFE7E8
:101BD0009DF80F0005B0704789B0089007910692F4
:101BE00005930898806D04900898806D039008987C
:101BF000016801201022C4F202029142029000F01A
:101C00000381FFE70898016801202822C4F202023C
:101C10009142029000F0F880FFE7089801680120E7
:101C20004022C4F202029142029000F0ED80FFE7F0
:101C30000898016801205822C4F2020291420290E1
:101C400000F0E280FFE70898016801207022C4F2EA
:101C500002029142029000F0D780FFE708980168E5
:101C600001208822C4F202029142029000F0CC804E
:101C7000FFE7089801680120A022C4F20202914205
:101C8000029000F0C180FFE7089801680120B822A7
:101C9000C4F202029142029000F0B680FFE7089879
:101CA0000168012040F21042C4F202029142029007
:101CB00000F0AA80FFE708980168012040F228425E
:101CC000C4F202029142029000F09E80FFE7089861
:101CD0000168012040F24042C4F2020291420290A7
:101CE00000F09280FFE708980168012040F2584216
:101CF000C4F202029142029000F08680FFE7089849
:101D00000168012040F27042C4F202029142029046
:101D10007AD0FFE708980168012040F28842C4F2B7
:101D20000202914202906FD0FFE7089801680120FB
:101D300040F2A042C4F202029142029064D0FFE756
:101D400008980168012040F2B842C4F202029142B0
:101D5000029059D0FFE708980168012045F2084237
:101D6000C5F60202914202904ED0FFE70898016842
:101D7000012045F21C42C5F602029142029043D076
:101D8000FFE708980168012045F23042C5F60202DB
:101D90009142029038D0FFE708980168012045F28F
:101DA0004442C5F60202914202902DD0FFE7089806
:101DB0000168012045F25842C5F6020291420290A4
:101DC00022D0FFE708980168012045F26C42C5F671
:101DD00002029142029017D0FFE7089801680120A3
:101DE00045F28042C5F60202914202900CD0FFE714
:101DF000089800684AF66C31CAF2FD710844B0FADE
:101E000080F040090290FFE70298C00770B1FFE739
:101E10000898416E806E48600898C06E28B1FFE750
:101E20000898016F406F4860FFE7FFE70898016876
:101E300001201022C4F202029142019000F0A3801E
:101E4000FFE70898016801202822C4F202029142AB
:101E5000019000F09880FFE7089801680120402277
:101E6000C4F202029142019000F08D80FFE70898D1
:101E7000016801205822C4F202029142019000F050
:101E80008280FFE70898016801207022C4F20202F4
:101E90009142019077D0FFE70898016801208822DD
:101EA000C4F20202914201906DD0FFE708980168E8
:101EB0000120A022C4F202029142019063D0FFE708
:101EC000089801680120B822C4F2020291420190F0
:101ED00059D0FFE708980168012040F21042C4F28F
:101EE0000202914201904ED0FFE70898016801205C
:101EF00040F22842C4F202029142019043D0FFE72F
:101F000008980168012040F24042C4F20202914266
:101F1000019038D0FFE708980168012040F258424C
:101F2000C4F20202914201902DD0FFE708980168A7
:101F3000012040F27042C4F202029142019022D08C
:101F4000FFE708980168012040F28842C4F20202CB
:101F50009142019017D0FFE708980168012040F2F4
:101F6000A042C4F20202914201900CD0FFE708980F
:101F700000684FF64831CBF6FD710844B0FA80F0A6
:101F800040090190FFE70198C00750B3FFE70898A8
:101F9000C06D00F01F013F208840049988600898B8
:101FA0000168086820F4802008600598089909688D
:101FB000486008988068402809D1FFE7069808998A
:101FC00009688860079808990968C86008E0079858
:101FD000089909688860069808990968C860FFE749
:101FE00082E008980168012045F20842C5F6020225
:101FF000914200904ED0FFE708980168012045F219
:102000001C42C5F602029142009043D0FFE70898B7
:102010000168012045F23042C5F60202914200906B
:1020200038D0FFE708980168012045F24442C5F620
:102030000202914200902DD0FFE70898016801202C
:1020400045F25842C5F602029142009022D0FFE7C5
:1020500008980168012045F26C42C5F602029142DF
:10206000009017D0FFE708980168012045F28042F0
:10207000C5F60202914200900CD0FFE70898006874
:102080004AF66C31CAF2FD710844B0FA80F040099A
:102090000090FFE70098C00720B3FFE70898C06DE5
:1020A00000F01F01012088400399486005980899B5
:1020B0000968486008988068402809D1FFE70698B9
:1020C000089909688860079808990968C86008E055
:1020D0000798089909688860069808990968C8608F
:1020E000FFE700E0FFE7FFE709B0704700000000EE
:1020F00080B584B040F20000C2F2004001904FF47D
:10210000C8710291FEF74CF90199029A40F21070E1
:10211000C2F2000009F0F8FD20B1FFE701208DF8C0
:102120000F00F9E040F21070C2F20000D0F8800019
:1021300000681021C4F20201884200F0D180FFE75C
:1021400040F21070C2F20000D0F880000068282130
:10215000C4F20201884200F0C380FFE740F2107031
:10216000C2F20000D0F8800000684021C4F20201F1
:10217000884200F0B580FFE740F21070C2F2000024
:10218000D0F8800000685821C4F20201884200F0B3
:10219000A780FFE740F21070C2F20000D0F8800084
:1021A00000687021C4F20201884200F09980FFE7C4
:1021B00040F21070C2F20000D0F880000068882160
:1021C000C4F20201884200F08B80FFE740F21070F9
:1021D000C2F20000D0F880000068A021C4F2020121
:1021E00088427DD0FFE740F21070C2F20000D0F8C4
:1021F00080000068B821C4F20201884270D0FFE775
:1022000040F21070C2F20000D0F88000006840F286
:102210001041C4F20201884262D0FFE740F2107020
:10222000C2F20000D0F88000006840F22841C4F2F9
:102230000201884254D0FFE740F21070C2F2000061
:10224000D0F88000006840F24041C4F202018842A8
:1022500046D0FFE740F21070C2F20000D0F88000D4
:10226000006840F25841C4F20201884238D0FFE7CA
:1022700040F21070C2F20000D0F88000006840F216
:102280007041C4F2020188422AD0FFE740F2107088
:10229000C2F20000D0F88000006840F28841C4F229
:1022A000020188421CD0FFE740F21070C2F2000029
:1022B000D0F88000006840F2A041C4F202018842D8
:1022C0000ED0FFE740F21070C2F20000D0F880009C
:1022D000006840F2B841C4F2020188420CD1FFE725
:1022E00040F21070C2F20000D0F880000168086867
:1022F00020F0080008600BE040F21070C2F200000D
:10230000D0F880000168086820F004000860FFE74A
:1023100000208DF80F00FFE79DF80F0004B080BD8E
:10232000704700000000000081B0EFF3108072B62B
:102330000090FFE7FEE7000044F60C01C5F602013D
:10234000086840F002000860FFE744F60400C5F6A4
:10235000020000688004002801D4FFE7F5E7704719
:1023600080B540F28030C2F2000004F069F980BD0F
:1023700080B582B040F28030C2F20000019004F0DB
:10238000CFFF019803F040FF0BF022F8FFF7ACF805
:1023900002B080BD0000000080B540F22040C2F2D3
:1023A000000004F04DF980BD80B582B040F22040BD
:1023B000C2F20000019004F0B3FF019803F024FF83
:1023C0000BF016F8FFF7A8F802B080BD000000007F
:1023D00084B002900298406B009002980068D0F898
:1023E00084004FF6FC718843009940EA810002990D
:1023F0000968C1F8840002980068D0F8840020F4CD
:102400007F00029A1168926B40EA0240C1F8840092
:102410000298816B00980844009002980068D0F8F8
:1024200088006FF38F00009940EA810002990968E3
:10243000C1F8880002980068D0F8880020F4FE00F7
:10244000029A1168D26B40EA0240C1F888000298F3
:10245000C16B009800EB4100009002980068D0F832
:10246000A0006FF38F00009940EA8100029909688B
:10247000C1F8A00002980068D0F8A00020F4FE0087
:10248000029A1168126C40EA0240C1F8A000029959
:10249000086C496C009A00FB0120009002980068CB
:1024A000D0F8B0006FF38F00009940EA81000299E4
:1024B0000968C1F8B00002980068D0F8B00020F4B4
:1024C000FE00029A1168926C40EA0240C1F8B00026
:1024D0000299886CC96C009A00FB01200090029858
:1024E0000068D0F8AC006FF38F00009940EA8100DB
:1024F00002990968C1F8AC000299086D496D009A0B
:1025000000FB0120009002980068D0F8F0006FF303
:102510008F00009940EA810002990968C1F8F00033
:1025200002980068D0F8F00020F47C10029A11683C
:10253000926D40EA0240C1F8F0000298816D009867
:1025400000EB4100009002980068D0F8C0006FF3E3
:102550008F00009940EA810002990968C1F8C00023
:1025600002980068D0F8C00020F47C10029A11682C
:10257000D26D40EA0240C1F8C00002980068D0F86D
:10258000C00020F07C50029A1168126E40EA02608E
:10259000C1F8C00002994A6B4AF60040C4F200003C
:1025A00000EB8200C86602998A6BC86E00EB82005D
:1025B00008670299CA6B086F00EBC200486702996E
:1025C0000A6C4B6C486F5A4300EB82008867029993
:1025D0008A6CCB6C886F5A4300EB8200C867029903
:1025E0000A6D4B6DC86F5A4300EB8200C1F8800042
:1025F00002998A6DD1F8800000EBC200C1F8840016
:102600000299CA6D8B6ED1F884005A4300EB8200A8
:10261000C1F8880002990A6E8B6ED1F888005A437F
:1026200000EB8200C1F890000298D0F890004DF2C3
:10263000FD31C4F2000188420FD3FFE70299D1F8BF
:102640009C0040F02000C1F89C000299032081F812
:10265000980001208DF80F0017E00298C06E0190DD
:10266000FFE701980299D1F89010884208D2FFE75D
:10267000019900200860FFE7019804300190F0E71D
:10268000FFE700208DF80F00FFE79DF80F0004B072
:10269000704700000000000088B007900691059286
:1026A00004930698406848B9FFE706980168826875
:1026B0000069104340EA8140039009E006980168F0
:1026C000826800691043084340F080400390FFE7B0
:1026D0000698D0F820C0C16842698369C06940EAA1
:1026E0000C601843104340EA014002900798826E44
:1026F000D0F884000499514300EB810001900398C5
:1027000001990860019804300190029801990860CD
:1027100001980430019000200090FFE7009806998E
:10272000CA6847F2E071C0F60101895C88420DD2A7
:10273000FFE7059800994058019908600198043016
:102740000190FFE7009804300090E7E708B0704779
:1027500080B58AB0089005F0A3F90490089828B9CC
:10276000FFE701208DF8270000F0AABC089890F838
:10277000350002280ED0FFE7089980204865FFE762
:102780000899002081F83400FFE701208DF8270028
:1027900000F096BC0898016801201022C4F20202E1
:1027A0009142039000F0A380FFE7089801680120A0
:1027B0002822C4F202029142039000F09880FFE7C1
:1027C0000898016801204022C4F20202914203905D
:1027D00000F08D80FFE70898016801205822C4F2BC
:1027E00002029142039000F08280FFE7089801689E
:1027F00001207022C4F202029142039077D0FFE7D9
:102800000898016801208822C4F2020291420390D4
:102810006DD0FFE7089801680120A022C4F20202EF
:102820009142039063D0FFE7089801680120B82225
:10283000C4F202029142039059D0FFE70898016860
:10284000012040F21042C4F20202914203904ED0A5
:10285000FFE708980168012040F22842C4F2020212
:102860009142039043D0FFE708980168012040F2AD
:102870004042C4F202029142039038D0FFE7089828
:102880000168012040F25842C4F2020291420390D2
:102890002DD0FFE708980168012040F27042C4F291
:1028A00002029142039022D0FFE7089801680120BC
:1028B00040F28842C4F202029142039017D0FFE72F
:1028C00008980168012040F2A042C4F2020291423D
:1028D00003900CD0FFE7089800684FF64831CBF61C
:1028E000FD710844B0FA80F040090390FFE70398B7
:1028F000C00780B1FFE708980168086820F01E0053
:10290000086008980168486920F0800048610898CC
:102910000068059009E008980168086820F00E003A
:102920000860089800680590FFE708980168012092
:102930001022C4F202029142029000F00381FFE7EC
:102940000898016801202822C4F2020291420290F4
:1029500000F0F880FFE70898016801204022C4F2E7
:1029600002029142029000F0ED80FFE708980168B2
:1029700001205822C4F202029142029000F0E2804B
:10298000FFE70898016801207022C4F20202914218
:10299000029000F0D780FFE70898016801208822A4
:1029A000C4F202029142029000F0CC80FFE7089846
:1029B00001680120A022C4F202029142029000F0BC
:1029C000C180FFE7089801680120B822C4F2020222
:1029D0009142029000F0B680FFE70898016801205C
:1029E00040F21042C4F202029142029000F0AA802A
:1029F000FFE708980168012040F22842C4F2020271
:102A00009142029000F09E80FFE708980168012043
:102A100040F24042C4F202029142029000F09280E1
:102A2000FFE708980168012040F25842C4F2020210
:102A30009142029000F08680FFE70898016801202B
:102A400040F27042C4F20202914202907AD0FFE753
:102A500008980168012040F28842C4F202029142C3
:102A600002906FD0FFE708980168012040F2A04271
:102A7000C4F202029142029064D0FFE70898016814
:102A8000012040F2B842C4F202029142029059D0B1
:102A9000FFE708980168012045F20842C5F60202E6
:102AA000914202904ED0FFE708980168012045F25C
:102AB0001C42C5F602029142029043D0FFE70898FB
:102AC0000168012045F23042C5F6020291420290AF
:102AD00038D0FFE708980168012045F24442C5F666
:102AE0000202914202902DD0FFE708980168012070
:102AF00045F25842C5F602029142029022D0FFE709
:102B000008980168012045F26C42C5F60202914224
:102B1000029017D0FFE708980168012045F2804233
:102B2000C5F60202914202900CD0FFE708980068B7
:102B30004AF66C31CAF2FD710844B0FA80F04009DF
:102B40000290FFE70298C00738B1FFE70898016ECE
:102B5000086820F480700860FFE70898006810217A
:102B6000C4F20201884200F08180FFE70898006803
:102B70002821C4F20201884278D0FFE70898006853
:102B80004021C4F20201884270D0FFE70898006833
:102B90005821C4F20201884268D0FFE70898006813
:102BA0007021C4F20201884260D0FFE708980068F3
:102BB0008821C4F20201884258D0FFE708980068D3
:102BC000A021C4F20201884250D0FFE708980068B3
:102BD000B821C4F20201884248D0FFE70898006893
:102BE00040F21041C4F2020188423FD0FFE708984A
:102BF000006840F22841C4F20201884236D0FFE763
:102C00000898006840F24041C4F2020188422DD089
:102C1000FFE70898006840F25841C4F20201884278
:102C200024D0FFE70898006840F27041C4F2020126
:102C300088421BD0FFE70898006840F28841C4F240
:102C40000201884212D0FFE70898006840F2A041D4
:102C5000C4F20201884209D0FFE70898006840F2F8
:102C6000B841C4F20201884207D1FFE70898016821
:102C7000086820F00100086006E00898016808680C
:102C800020F001000860FFE7FFE705980068C00733
:102C9000C8B1FFE704F004FF0499401A062811D3D5
:102CA000FFE70899202048650899032081F835003E
:102CB000FFE70899002081F83400FFE701208DF834
:102CC0002700FDE1E1E70898016801201022C4F225
:102CD00002029142019000F0A380FFE7089801688A
:102CE00001202822C4F202029142019000F0988053
:102CF000FFE70898016801204022C4F202029142D5
:102D0000019000F08D80FFE70898016801205822AB
:102D1000C4F202029142019000F08280FFE708981D
:102D2000016801207022C4F202029142019077D022
:102D3000FFE70898016801208822C4F2020291424C
:102D400001906DD0FFE7089801680120A022C4F22D
:102D500002029142019063D0FFE7089801680120C8
:102D6000B822C4F202029142019059D0FFE70898BC
:102D70000168012040F21042C4F202029142019027
:102D80004ED0FFE708980168012040F22842C4F2C3
:102D900002029142019043D0FFE7089801680120A8
:102DA00040F24042C4F202029142019038D0FFE763
:102DB00008980168012040F25842C4F20202914290
:102DC00001902DD0FFE708980168012040F2704281
:102DD000C4F202029142019022D0FFE708980168F4
:102DE000012040F28842C4F202029142019017D0C1
:102DF000FFE708980168012040F2A042C4F20202F5
:102E0000914201900CD0FFE7089800684FF64831D6
:102E1000CBF6FD710844B0FA80F040090190FFE75D
:102E20000198C00760B1FFE70898806D0790089887
:102E3000C06D00F01F013F208840079988600BE0BB
:102E40000898806D06900898C06D00F01F01012061
:102E5000884006994860FFE7089801680120102221
:102E6000C4F202029142009000F00381FFE708984B
:102E7000016801202822C4F202029142009000F071
:102E8000F880FFE70898016801204022C4F202029E
:102E90009142009000F0ED80FFE708980168012062
:102EA0005822C4F202029142009000F0E280FFE753
:102EB0000898016801207022C4F202029142009039
:102EC00000F0D780FFE70898016801208822C4F24B
:102ED00002029142009000F0CC80FFE70898016860
:102EE0000120A022C4F202029142009000F0C180B1
:102EF000FFE7089801680120B822C4F2020291425B
:102F0000009000F0B680FFE708980168012040F2C9
:102F10001042C4F202029142009000F0AA80FFE742
:102F200008980168012040F22842C4F2020291424E
:102F3000009000F09E80FFE708980168012040F2B1
:102F40004042C4F202029142009000F09280FFE7FA
:102F500008980168012040F25842C4F202029142EE
:102F6000009000F08680FFE708980168012040F299
:102F70007042C4F20202914200907AD0FFE70898B2
:102F80000168012040F28842C4F20202914200909E
:102F90006FD0FFE708980168012040F2A042C4F218
:102FA00002029142009064D0FFE708980168012076
:102FB00040F2B842C4F202029142009059D0FFE7B9
:102FC00008980168012045F20842C5F602029142C4
:102FD00000904ED0FFE708980168012045F21C429E
:102FE000C5F602029142009043D0FFE708980168BD
:102FF000012045F23042C5F602029142009038D0DD
:10300000FFE708980168012045F24442C5F6020234
:10301000914200902DD0FFE708980168012045F209
:103020005842C5F602029142009022D0FFE708986C
:103030000168012045F26C42C5F6020291420090FF
:1030400017D0FFE708980168012045F28042C5F6D5
:103050000202914200900CD0FFE7089800684AF6FF
:103060006C31CAF2FD710844B0FA80F0400900905A
:10307000FFE70098C007A0B1FFE70898416E806E97
:1030800048600898C06E58B1FFE70898C16E08689C
:1030900020F4807008600898016F406F4860FFE777
:1030A000FFE70899012081F83500FFE70899002023
:1030B00081F83400FFE7FFE700208DF82700FFE7E5
:1030C0009DF827000AB080BD80B586B004900498B2
:1030D00020B9FFE701208DF8170046E3049890F827
:1030E0003500022807D0FFE70499802048650120B9
:1030F0008DF8170039E30498016801201022C4F20A
:1031000002029142029000F0A380FFE70498016858
:1031100001202822C4F202029142029000F098801D
:10312000FFE70498016801204022C4F202029142A4
:10313000029000F08D80FFE704980168012058227A
:10314000C4F202029142029000F08280FFE70498EC
:10315000016801207022C4F202029142029077D0ED
:10316000FFE70498016801208822C4F2020291421C
:1031700002906DD0FFE7049801680120A022C4F2FC
:1031800002029142029063D0FFE704980168012097
:10319000B822C4F202029142029059D0FFE704988B
:1031A0000168012040F21042C4F2020291420290F2
:1031B0004ED0FFE704980168012040F22842C4F293
:1031C00002029142029043D0FFE704980168012077
:1031D00040F24042C4F202029142029038D0FFE72E
:1031E00004980168012040F25842C4F20202914260
:1031F00002902DD0FFE704980168012040F2704250
:10320000C4F202029142029022D0FFE704980168C2
:10321000012040F28842C4F202029142029017D08B
:10322000FFE704980168012040F2A042C4F20202C4
:10323000914202900CD0FFE7049800684FF64831A5
:10324000CBF6FD710844B0FA80F040090290FFE728
:103250000298C007002800F09D80FFE70499042031
:1032600081F83500049800681021C4F202018842F8
:1032700000F08180FFE7049800682821C4F2020171
:10328000884278D0FFE7049800684021C4F2020128
:10329000884270D0FFE7049800685821C4F2020108
:1032A000884268D0FFE7049800687021C4F20201E8
:1032B000884260D0FFE7049800688821C4F20201C8
:1032C000884258D0FFE704980068A021C4F20201A8
:1032D000884250D0FFE704980068B821C4F2020188
:1032E000884248D0FFE70498006840F21041C4F2D9
:1032F000020188423FD0FFE70498006840F228416D
:10330000C4F20201884236D0FFE70498006840F218
:103310004041C4F2020188422DD0FFE704980068C2
:1033200040F25841C4F20201884224D0FFE70498D9
:10333000006840F27041C4F2020188421BD0FFE7EE
:103340000498006840F28841C4F20201884212D019
:10335000FFE70498006840F2A041C4F202018842ED
:1033600009D0FFE70498006840F2B841C4F20201B6
:10337000884207D1FFE704980168086820F001003F
:10338000086006E004980168086820F00100086001
:10339000FFE7E5E104980168086820F00E00086086
:1033A000049800681021C4F20201884200F0818074
:1033B000FFE7049800682821C4F20201884278D00F
:1033C000FFE7049800684021C4F20201884270D0EF
:1033D000FFE7049800685821C4F20201884268D0CF
:1033E000FFE7049800687021C4F20201884260D0AF
:1033F000FFE7049800688821C4F20201884258D08F
:10340000FFE704980068A021C4F20201884250D06E
:10341000FFE704980068B821C4F20201884248D04E
:10342000FFE70498006840F21041C4F202018842AC
:103430003FD0FFE70498006840F22841C4F202013F
:10344000884236D0FFE70498006840F24041C4F259
:10345000020188422DD0FFE70498006840F25841ED
:10346000C4F20201884224D0FFE70498006840F2C9
:103470007041C4F2020188421BD0FFE70498006843
:1034800040F28841C4F20201884212D0FFE704985A
:10349000006840F2A041C4F20201884209D0FFE76F
:1034A0000498006840F2B841C4F20201884207D192
:1034B000FFE704980168086820F00100086006E052
:1034C00004980168086820F001000860FFE704988C
:1034D000016801201022C4F202029142019000F022
:1034E0000381FFE70498016801202822C4F2020248
:1034F0009142019000F0F880FFE7049801680120F4
:103500004022C4F202029142019000F0ED80FFE7F8
:103510000498016801205822C4F2020291420190ED
:1035200000F0E280FFE70498016801207022C4F2F5
:1035300002029142019000F0D780FFE704980168F1
:1035400001208822C4F202029142019000F0CC8056
:10355000FFE7049801680120A022C4F20202914210
:10356000019000F0C180FFE7049801680120B822B3
:10357000C4F202029142019000F0B680FFE7049885
:103580000168012040F21042C4F20202914201900F
:1035900000F0AA80FFE704980168012040F2284269
:1035A000C4F202029142019000F09E80FFE704986D
:1035B0000168012040F24042C4F2020291420190AF
:1035C00000F09280FFE704980168012040F2584221
:1035D000C4F202029142019000F08680FFE7049855
:1035E0000168012040F27042C4F20202914201904F
:1035F0007AD0FFE704980168012040F28842C4F2C3
:103600000202914201906FD0FFE704980168012007
:1036100040F2A042C4F202029142019064D0FFE75E
:1036200004980168012040F2B842C4F202029142BB
:10363000019059D0FFE704980168012045F2084243
:10364000C5F60202914201904ED0FFE7049801684E
:10365000012045F21C42C5F602029142019043D07E
:10366000FFE704980168012045F23042C5F60202E6
:103670009142019038D0FFE704980168012045F29B
:103680004442C5F60202914201902DD0FFE7049812
:103690000168012045F25842C5F6020291420190AC
:1036A00022D0FFE704980168012045F26C42C5F67C
:1036B00002029142019017D0FFE7049801680120AF
:1036C00045F28042C5F60202914201900CD0FFE71C
:1036D000049800684AF66C31CAF2FD710844B0FAE9
:1036E00080F040090190FFE70198C00728B3FFE789
:1036F0000498016E086820F4807008600498806D5A
:1037000003900498C06D00F01F01012088400399C8
:1037100048600498416E806E48600498C06E58B14D
:10372000FFE70498C16E086820F480700860049870
:10373000016F406F4860FFE7FFE70499012081F8BF
:103740003500FFE70499002081F83400FFE7049872
:10375000006D20B1FFE70498016D8847FFE7FFE7A0
:10376000FFE700208DF81700FFE79DF8170006B06F
:1037700080BD00000000000080B588B0069006986B
:1037800020B9FFE701208DF81F002FE2069800689E
:103790001021C4F20201884200F08180FFE7069800
:1037A00000682821C4F20201884278D0FFE7069819
:1037B00000684021C4F20201884270D0FFE70698F9
:1037C00000685821C4F20201884268D0FFE70698D9
:1037D00000687021C4F20201884260D0FFE70698B9
:1037E00000688821C4F20201884258D0FFE7069899
:1037F0000068A021C4F20201884250D0FFE7069879
:103800000068B821C4F20201884248D0FFE7069858
:10381000006840F21041C4F2020188423FD0FFE745
:103820000698006840F22841C4F20201884236D06E
:10383000FFE70698006840F24041C4F20201884266
:103840002DD0FFE70698006840F25841C4F202010B
:10385000884224D0FFE70698006840F27041C4F225
:10386000020188421BD0FFE70698006840F28841B9
:10387000C4F20201884212D0FFE70698006840F2C5
:10388000A041C4F20201884209D0FFE7069800680F
:1038900040F2B841C4F20201884207D1FFE706981E
:1038A0000168086820F00100086006E006980168D9
:1038B000086820F001000860FFE706980168012011
:1038C0001022C4F202029142039000F0A380FFE7AD
:1038D0000698016801202822C4F202029142039056
:1038E00000F09880FFE70698016801204022C4F2AA
:1038F00002029142039000F08D80FFE70698016874
:1039000001205822C4F202029142039000F082800A
:10391000FFE70698016801207022C4F2020291427A
:10392000039077D0FFE70698016801208822C4F24F
:103930000202914203906DD0FFE7069801680120D2
:10394000A022C4F202029142039063D0FFE70698DE
:1039500001680120B822C4F202029142039059D0BA
:10396000FFE706980168012040F21042C4F202020B
:10397000914203904ED0FFE706980168012040F283
:103980002842C4F202029142039043D0FFE7069816
:103990000168012040F24042C4F2020291420390C9
:1039A00038D0FFE706980168012040F25842C4F27F
:1039B0000202914203902DD0FFE706980168012092
:1039C00040F27042C4F202029142039022D0FFE71B
:1039D00006980168012040F28842C4F20202914236
:1039E000039017D0FFE706980168012040F2A0423B
:1039F000C4F20202914203900CD0FFE706980068DF
:103A00004FF64831CBF6FD710844B0FA80F040091A
:103A10000390FFE70398C00708B3FFE70698016823
:103A2000002008600699096848600699096888605E
:103A300006990968C86006990968086106980168CE
:103A4000212048610698FDF713FE05900698C06D89
:103A500000F01F013F208840059988607EE00698AD
:103A60000168012045F20842C5F602029142029027
:103A70004ED0FFE706980168012045F21C42C5F6CA
:103A800002029142029043D0FFE7069801680120AC
:103A900045F23042C5F602029142029038D0FFE76B
:103AA00006980168012045F24442C5F6020291429F
:103AB00002902DD0FFE706980168012045F2584298
:103AC000C5F602029142029022D0FFE706980168F3
:103AD000012045F26C42C5F602029142029017D0D5
:103AE000FFE706980168012045F28042C5F6020210
:103AF000914202900CD0FFE7069800684AF66C31BC
:103B0000CAF2FD710844B0FA80F040090290FFE764
:103B10000298C007E8B1FFE7069801680020086036
:103B200006990968486006990968886006990968D5
:103B3000C8600699096808610698FDF799FD049028
:103B40000698C06D00F01F0101208840049948606C
:103B500003E001208DF81F0048E0FFE70698FDF71D
:103B60006FFE0698006E48B1FFE70698016E0020D0
:103B700008600698416E806E4860FFE706984068CE
:103B800088B1FFE70698406808280CD8FFE7069838
:103B9000FDF712FF0698C16E002008600698016FBD
:103BA000406F4860FFE7069900200190C8660699BB
:103BB0000867069948670699C863069908640699D4
:103BC0004864069988640699C86406990865069948
:103BD0004865069981F83500FFE70699002081F8CD
:103BE0003400FFE700208DF81F00FFE79DF81F005D
:103BF00008B080BD0000000080B590B00F9000209C
:103C00000B9040F20400C2F20000006848F2B511C7
:103C1000C1F64E31A0FB0110800A0A900F98806D0A
:103C200009900F98806D0890099800680E90089888
:103C300000680D900F98016801201022C4F2020262
:103C40009142079000F0A380FFE70F9801680120E0
:103C50002822C4F202029142079000F09880FFE708
:103C60000F98016801204022C4F20202914207909D
:103C700000F08D80FFE70F98016801205822C4F200
:103C800002029142079000F08280FFE70F980168DE
:103C900001207022C4F202029142079077D0FFE720
:103CA0000F98016801208822C4F202029142079015
:103CB0006DD0FFE70F9801680120A022C4F2020234
:103CC0009142079063D0FFE70F9801680120B82266
:103CD000C4F202029142079059D0FFE70F980168A1
:103CE000012040F21042C4F20202914207904ED0ED
:103CF000FFE70F980168012040F22842C4F2020257
:103D00009142079043D0FFE70F980168012040F2ED
:103D10004042C4F202029142079038D0FFE70F9868
:103D20000168012040F25842C4F202029142079019
:103D30002DD0FFE70F980168012040F27042C4F2D5
:103D400002029142079022D0FFE70F9801680120FC
:103D500040F28842C4F202029142079017D0FFE776
:103D60000F980168012040F2A042C4F20202914281
:103D700007900CD0FFE70F9800684FF64831CBF65C
:103D8000FD710844B0FA80F040090790FFE70798FA
:103D9000C007002800F01385FFE70E980F99C96D42
:103DA00001F01F01C8400007002840F1B080FFE784
:103DB0000F9800681021C4F20201884200F081804F
:103DC000FFE70F9800682821C4F20201884278D0EA
:103DD000FFE70F9800684021C4F20201884270D0CA
:103DE000FFE70F9800685821C4F20201884268D0AA
:103DF000FFE70F9800687021C4F20201884260D08A
:103E0000FFE70F9800688821C4F20201884258D069
:103E1000FFE70F980068A021C4F20201884250D049
:103E2000FFE70F980068B821C4F20201884248D029
:103E3000FFE70F98006840F21041C4F20201884287
:103E40003FD0FFE70F98006840F22841C4F202011A
:103E5000884236D0FFE70F98006840F24041C4F234
:103E6000020188422DD0FFE70F98006840F25841C8
:103E7000C4F20201884224D0FFE70F98006840F2A4
:103E80007041C4F2020188421BD0FFE70F9800681E
:103E900040F28841C4F20201884212D0FFE70F9835
:103EA000006840F2A041C4F20201884209D0FFE755
:103EB0000F98006840F2B841C4F20201884207D16D
:103EC000FFE70F980068006800F00400069006E025
:103ED0000F980068006800F008000690FFE7069859
:103EE000A0B1FFE70F980168086820F0040008609F
:103EF0000F98C06D00F01F01082088400999886064
:103F00000F99486D40F001004865FFE7FFE70E9804
:103F10000F99C96D01F01F01C840C007002800F0CB
:103F2000A980FFE70F9800681021C4F202018842BF
:103F300000F08180FFE70F9800682821C4F2020199
:103F4000884278D0FFE70F9800684021C4F2020150
:103F5000884270D0FFE70F9800685821C4F2020130
:103F6000884268D0FFE70F9800687021C4F2020110
:103F7000884260D0FFE70F9800688821C4F20201F0
:103F8000884258D0FFE70F980068A021C4F20201D0
:103F9000884250D0FFE70F980068B821C4F20201B0
:103FA000884248D0FFE70F98006840F21041C4F201
:103FB000020188423FD0FFE70F98006840F2284195
:103FC000C4F20201884236D0FFE70F98006840F241
:103FD0004041C4F2020188422DD0FFE70F980068EB
:103FE00040F25841C4F20201884224D0FFE70F9802
:103FF000006840F27041C4F2020188421BD0FFE722
:104000000F98006840F28841C4F20201884212D041
:10401000FFE70F98006840F2A041C4F20201884215
:1040200009D0FFE70F98006840F2B841C4F20201DE
:10403000884207D1FFE70F980068406900F08000D0
:10404000059005E00F980068006800200590FFE7E4
:10405000059870B1FFE70F98C06D00F01F010120B7
:104060008840099988600F99486D40F002004865C2
:10407000FFE7FFE70E980F99C96D01F01F01C840D7
:104080004007002840F1A980FFE70F980068102141
:10409000C4F20201884200F08180FFE70F980068B7
:1040A0002821C4F20201884278D0FFE70F98006807
:1040B0004021C4F20201884270D0FFE70F980068E7
:1040C0005821C4F20201884268D0FFE70F980068C7
:1040D0007021C4F20201884260D0FFE70F980068A7
:1040E0008821C4F20201884258D0FFE70F98006887
:1040F000A021C4F20201884250D0FFE70F98006867
:10410000B821C4F20201884248D0FFE70F98006846
:1041100040F21041C4F2020188423FD0FFE70F98FD
:10412000006840F22841C4F20201884236D0FFE71D
:104130000F98006840F24041C4F2020188422DD03D
:10414000FFE70F98006840F25841C4F2020188422C
:1041500024D0FFE70F98006840F27041C4F20201DA
:1041600088421BD0FFE70F98006840F28841C4F2F4
:104170000201884212D0FFE70F98006840F2A04188
:10418000C4F20201884209D0FFE70F98006840F2AC
:10419000B841C4F20201884207D1FFE70F980068D6
:1041A000006800F00200049005E00F9800680068C5
:1041B00000200490FFE7049870B1FFE70F98C06DEE
:1041C00000F01F0104208840099988600F99486D0C
:1041D00040F004004865FFE7FFE70E980F99C96DAE
:1041E00001F01F01C840C006002840F1DE80FFE753
:1041F0000F9800681021C4F20201884200F081800B
:10420000FFE70F9800682821C4F20201884278D0A5
:10421000FFE70F9800684021C4F20201884270D085
:10422000FFE70F9800685821C4F20201884268D065
:10423000FFE70F9800687021C4F20201884260D045
:10424000FFE70F9800688821C4F20201884258D025
:10425000FFE70F980068A021C4F20201884250D005
:10426000FFE70F980068B821C4F20201884248D0E5
:10427000FFE70F98006840F21041C4F20201884243
:104280003FD0FFE70F98006840F22841C4F20201D6
:10429000884236D0FFE70F98006840F24041C4F2F0
:1042A000020188422DD0FFE70F98006840F2584184
:1042B000C4F20201884224D0FFE70F98006840F260
:1042C0007041C4F2020188421BD0FFE70F980068DA
:1042D00040F28841C4F20201884212D0FFE70F98F1
:1042E000006840F2A041C4F20201884209D0FFE711
:1042F0000F98006840F2B841C4F20201884207D129
:10430000FFE70F980068006800F00800039006E0DF
:104310000F980068006800F004000390FFE703981E
:10432000002841D0FFE70F98C06D00F01F0110205A
:104330008840099988600F98006800684003002849
:104340001AD5FFE70F98006800680003002809D419
:10435000FFE70F98006C20B1FFE70F98016C8847CA
:10436000FFE708E00F98806C20B1FFE70F98816CA1
:104370008847FFE7FFE716E00F9800680068C00570
:10438000002807D4FFE70F980168086820F00800AC
:104390000860FFE70F98006C20B1FFE70F98016CF1
:1043A0008847FFE7FFE7FFE7FFE70E980F99C96D22
:1043B00001F01F01C8408006002840F12681FFE778
:1043C0000F9800681021C4F20201884200F0818039
:1043D000FFE70F9800682821C4F20201884278D0D4
:1043E000FFE70F9800684021C4F20201884270D0B4
:1043F000FFE70F9800685821C4F20201884268D094
:10440000FFE70F9800687021C4F20201884260D073
:10441000FFE70F9800688821C4F20201884258D053
:10442000FFE70F980068A021C4F20201884250D033
:10443000FFE70F980068B821C4F20201884248D013
:10444000FFE70F98006840F21041C4F20201884271
:104450003FD0FFE70F98006840F22841C4F2020104
:10446000884236D0FFE70F98006840F24041C4F21E
:10447000020188422DD0FFE70F98006840F25841B2
:10448000C4F20201884224D0FFE70F98006840F28E
:104490007041C4F2020188421BD0FFE70F98006808
:1044A00040F28841C4F20201884212D0FFE70F981F
:1044B000006840F2A041C4F20201884209D0FFE73F
:1044C0000F98006840F2B841C4F20201884207D157
:1044D000FFE70F980068006800F01000029006E007
:1044E0000F980068006800F002000290FFE7029851
:1044F000002800F08980FFE70F98C06D00F01F01D1
:1045000020208840099988600F9890F83500042889
:1045100037D1FFE70F980168086820F0160008609F
:104520000F980168486920F0800048610F98006C7E
:1045300020B9FFE70F98806C38B1FFE70F9801684A
:10454000086820F008000860FFE70F98C06D00F0D1
:104550001F013F208840099988600F99012081F848
:104560003500FFE70F99002081F83400FFE70F982E
:10457000006D20B1FFE70F98016D8847FFE700F05D
:1045800019BC0F9800680068400300281AD5FFE79F
:104590000F98006800680003002809D4FFE70F980F
:1045A000406C20B1FFE70F98416C8847FFE708E0B7
:1045B0000F98C06B20B1FFE70F98C16B8847FFE7EA
:1045C000FFE720E00F9800680068C005002811D4BC
:1045D000FFE70F980168086820F0100008600F9945
:1045E000012081F83500FFE70F99002081F83400A1
:1045F000FFE7FFE70F98C06B20B1FFE70F98C16B93
:104600008847FFE7FFE7FFE7FFE70F98406D0028C7
:1046100000F0D480FFE70F98406DC007002800F03D
:10462000C480FFE70F99042081F835000F980068D7
:104630001021C4F20201884200F08180FFE70F9848
:1046400000682821C4F20201884278D0FFE70F9861
:1046500000684021C4F20201884270D0FFE70F9841
:1046600000685821C4F20201884268D0FFE70F9821
:1046700000687021C4F20201884260D0FFE70F9801
:1046800000688821C4F20201884258D0FFE70F98E1
:104690000068A021C4F20201884250D0FFE70F98C1
:1046A0000068B821C4F20201884248D0FFE70F98A1
:1046B000006840F21041C4F2020188423FD0FFE797
:1046C0000F98006840F22841C4F20201884236D0B7
:1046D000FFE70F98006840F24041C4F202018842AF
:1046E0002DD0FFE70F98006840F25841C4F2020154
:1046F000884224D0FFE70F98006840F27041C4F26E
:10470000020188421BD0FFE70F98006840F2884101
:10471000C4F20201884212D0FFE70F98006840F20D
:10472000A041C4F20201884209D0FFE70F98006857
:1047300040F2B841C4F20201884207D1FFE70F9866
:104740000168086820F00100086006E00F98016821
:10475000086820F001000860FFE7FFE70B980130D0
:104760000B900A99884201D9FFE707E0FFE70F980D
:1047700000680068C0070028F0D1FFE70F980068C4
:104780000068C00728B1FFE70F99032081F83500C2
:1047900004E00F99012081F83500FFE7FFE70F994A
:1047A000002081F83400FFE7FFE70F98C06C20B1CC
:1047B000FFE70F98C16C8847FFE7FFE7FAE20F9821
:1047C0000168012045F20842C5F6020291420190BB
:1047D0004ED0FFE70F980168012045F21C42C5F654
:1047E00002029142019043D0FFE70F980168012037
:1047F00045F23042C5F602029142019038D0FFE7FF
:104800000F980168012045F24442C5F60202914228
:1048100001902DD0FFE70F980168012045F2584222
:10482000C5F602029142019022D0FFE70F9801687D
:10483000012045F26C42C5F602029142019017D068
:10484000FFE70F980168012045F28042C5F6020299
:10485000914201900CD0FFE70F9800684AF66C3146
:10486000CAF2FD710844B0FA80F040090190FFE7F8
:104870000198C007002800F09B82FFE70F980068AE
:1048800000680C900D980F99C96D01F01F01C84088
:104890004007002840F1D780FFE79DF8300040072F
:1048A000002840F1D080FFE70F98C06D00F01F0195
:1048B00004208840089948609DF8310000060028CF
:1048C00018D5FFE79DF83200C00748B9FFE70F98F9
:1048D000806C20B1FFE70F98816C8847FFE708E004
:1048E0000F98006C20B1FFE70F98016C8847FFE735
:1048F000FFE7A7E09DF830008006002800F19980CE
:10490000FFE70F9800681021C4F20201884200F00E
:104910008180FFE70F9800682821C4F202018842D5
:1049200078D0FFE70F9800684021C4F20201884266
:1049300070D0FFE70F9800685821C4F20201884246
:1049400068D0FFE70F9800687021C4F20201884226
:1049500060D0FFE70F9800688821C4F20201884206
:1049600058D0FFE70F980068A021C4F202018842E6
:1049700050D0FFE70F980068B821C4F202018842C6
:1049800048D0FFE70F98006840F21041C4F20201DE
:1049900088423FD0FFE70F98006840F22841C4F2F8
:1049A0000201884236D0FFE70F98006840F240418C
:1049B000C4F2020188422DD0FFE70F98006840F250
:1049C0005841C4F20201884224D0FFE70F980068E2
:1049D00040F27041C4F2020188421BD0FFE70F98F9
:1049E000006840F28841C4F20201884212D0FFE719
:1049F0000F98006840F2A041C4F20201884209D039
:104A0000FFE70F98006840F2B841C4F20201884203
:104A100007D1FFE70F980168086820F008000860D8
:104A200006E00F980168086820F004000860FFE7BE
:104A3000FFE70F98006C20B1FFE70F98016C8847E3
:104A4000FFE7FFE7B3E10D980F99C96D01F01F0172
:104A5000C8408007002840F1E180FFE79DF8300062
:104A60008007002840F1DA80FFE70F98C06D00F062
:104A70001F0102208840089948609DF83100000617
:104A8000002818D5FFE79DF83200C00748B9FFE7B6
:104A90000F98406C20B1FFE70F98416C8847FFE703
:104AA00008E00F98C06B20B1FFE70F98C16B8847F3
:104AB000FFE7FFE7B1E09DF830008006002800F135
:104AC000A380FFE70F9800681021C4F2020188421A
:104AD00000F08180FFE70F9800682821C4F20201EE
:104AE000884278D0FFE70F9800684021C4F20201A5
:104AF000884270D0FFE70F9800685821C4F2020185
:104B0000884268D0FFE70F9800687021C4F2020164
:104B1000884260D0FFE70F9800688821C4F2020144
:104B2000884258D0FFE70F980068A021C4F2020124
:104B3000884250D0FFE70F980068B821C4F2020104
:104B4000884248D0FFE70F98006840F21041C4F255
:104B5000020188423FD0FFE70F98006840F22841E9
:104B6000C4F20201884236D0FFE70F98006840F295
:104B70004041C4F2020188422DD0FFE70F9800683F
:104B800040F25841C4F20201884224D0FFE70F9856
:104B9000006840F27041C4F2020188421BD0FFE776
:104BA0000F98006840F28841C4F20201884212D096
:104BB000FFE70F98006840F2A041C4F2020188426A
:104BC00009D0FFE70F98006840F2B841C4F2020133
:104BD000884207D1FFE70F980168086820F01400A9
:104BE000086006E00F980168086820F00A00086075
:104BF000FFE70F99012081F83500FFE70F990020AA
:104C000081F83400FFE7FFE70F98C06B20B1FFE7A2
:104C10000F98C16B8847FFE7FFE7C7E00D980F9932
:104C2000C96D01F01F01C8400007002840F1BC8099
:104C3000FFE79DF830000007002840F1B580FFE74E
:104C40000F9800681021C4F20201884200F08180B0
:104C5000FFE70F9800682821C4F20201884278D04B
:104C6000FFE70F9800684021C4F20201884270D02B
:104C7000FFE70F9800685821C4F20201884268D00B
:104C8000FFE70F9800687021C4F20201884260D0EB
:104C9000FFE70F9800688821C4F20201884258D0CB
:104CA000FFE70F980068A021C4F20201884250D0AB
:104CB000FFE70F980068B821C4F20201884248D08B
:104CC000FFE70F98006840F21041C4F202018842E9
:104CD0003FD0FFE70F98006840F22841C4F202017C
:104CE000884236D0FFE70F98006840F24041C4F296
:104CF000020188422DD0FFE70F98006840F258412A
:104D0000C4F20201884224D0FFE70F98006840F205
:104D10007041C4F2020188421BD0FFE70F9800687F
:104D200040F28841C4F20201884212D0FFE70F9896
:104D3000006840F2A041C4F20201884209D0FFE7B6
:104D40000F98006840F2B841C4F20201884207D1CE
:104D5000FFE70F980168086820F01C00086006E073
:104D60000F980168086820F00E000860FFE70F98B0
:104D7000C06D00F01F01012000FA01F1089A516096
:104D80000F9948650F9981F83500FFE70F990020CA
:104D900081F83400FFE70F98C06C20B1FFE70F984F
:104DA000C16C8847FFE700E0FFE7FFE7FFE700E0AF
:104DB000FFE7FFE710B080BD10B58EB00C9002F099
:104DC0006FFE0A900C9828B9FFE701208DF8370094
:104DD00000F09EBC0C98016801201022C4F202026F
:104DE0009142079000F0A380FFE70C980168012032
:104DF0002822C4F202029142079000F09880FFE757
:104E00000C98016801204022C4F2020291420790EE
:104E100000F08D80FFE70C98016801205822C4F251
:104E200002029142079000F08280FFE70C9801682F
:104E300001207022C4F202029142079077D0FFE76E
:104E40000C98016801208822C4F202029142079066
:104E50006DD0FFE70C9801680120A022C4F2020285
:104E60009142079063D0FFE70C9801680120B822B7
:104E7000C4F202029142079059D0FFE70C980168F2
:104E8000012040F21042C4F20202914207904ED03B
:104E9000FFE70C980168012040F22842C4F20202A8
:104EA0009142079043D0FFE70C980168012040F23F
:104EB0004042C4F202029142079038D0FFE70C98BA
:104EC0000168012040F25842C4F202029142079068
:104ED0002DD0FFE70C980168012040F27042C4F227
:104EE00002029142079022D0FFE70C98016801204E
:104EF00040F28842C4F202029142079017D0FFE7C5
:104F00000C980168012040F2A042C4F202029142D2
:104F100007900CD0FFE70C9800684FF64831CBF6AD
:104F2000FD710844B0FA80F040090790FFE7079848
:104F3000C007002800F07881FFE70C98406A08B1AC
:104F4000FFE7FFE70C99022081F83500FFE70C9995
:104F5000002081F83400FFE70C9800681021C4F2AB
:104F60000201884200F08180FFE70C980068282148
:104F7000C4F20201884278D0FFE70C980068402113
:104F8000C4F20201884270D0FFE70C9800685821F3
:104F9000C4F20201884268D0FFE70C9800687021D3
:104FA000C4F20201884260D0FFE70C9800688821B3
:104FB000C4F20201884258D0FFE70C980068A02193
:104FC000C4F20201884250D0FFE70C980068B82173
:104FD000C4F20201884248D0FFE70C98006840F212
:104FE0001041C4F2020188423FD0FFE70C980068EC
:104FF00040F22841C4F20201884236D0FFE70C9803
:10500000006840F24041C4F2020188422DD0FFE71F
:105010000C98006840F25841C4F20201884224D042
:10502000FFE70C98006840F27041C4F20201884228
:105030001BD0FFE70C98006840F28841C4F20201DF
:10504000884212D0FFE70C98006840F2A041C4F2F9
:105050000201884209D0FFE70C98006840F2B8418D
:10506000C4F20201884207D1FFE70C980168086882
:1050700020F00100086006E00C980168086820F044
:1050800001000860FFE7FFE70C9800680068C007B0
:1050900098B1FFE702F004FD0A99401A06280BD3E5
:1050A000FFE70C99202048650C99032081F8350012
:1050B00001208DF837002BE3E6E70C9800680068C4
:1050C0000B900B9848F23F01CFF6106108400B900F
:1050D0000C998868D1F80CC00B694A6940EA0C0049
:1050E000184310438A691043CA691043096A01438F
:1050F0000B9808430B900C98406A042808D1FFE7EE
:105100000C99C86A096B01430B9808430B90FFE7A1
:105110000C984068292807D3FFE70C9841680120C4
:105120002F29069036D3FFE70C9840683F2807D315
:10513000FFE70C9841680120432906902AD3FFE736
:105140000C984068472807D3FFE70C984168012076
:10515000492906901ED3FFE70C9840684F2807D3D3
:10516000FFE70C98416801205329069012D3FFE70E
:105170000C98416800207429059008D3FFE70C982B
:1051800041680020782938BF01200590FFE7059885
:105190000690FFE70698C00728B1FFE70B9840F498
:1051A00080100B90FFE70B980C99096808600C9829
:1051B000006840690B900B9820F007000B900C984A
:1051C000416A0B9808430B900C98406A04281AD146
:1051D000FFE70C98816A0B9808430B900C98C06A03
:1051E00080B1FFE70C98FCF77FFC50B1FFE70C990A
:1051F000402048650C99012081F835008DF8370072
:1052000086E2FFE7FFE70B980C99096848610C9864
:10521000FCF72EFA09900C98C06D00F01F013F209A
:1052200088400999886026E10C980168012045F2C0
:105230000842C5F60202914204904ED0FFE70C9856
:105240000168012045F21C42C5F602029142049019
:1052500043D0FFE70C980168012045F23042C5F6C3
:1052600002029142049038D0FFE70C9801680120B7
:1052700045F24442C5F60202914204902DD0FFE768
:105280000C980168012045F25842C5F6020291428D
:10529000049022D0FFE70C980168012045F26C428F
:1052A000C5F602029142049017D0FFE70C980168FE
:1052B000012045F28042C5F60202914204900CD0D2
:1052C000FFE70C9800684AF66C31CAF2FD71084499
:1052D000B0FA80F040090490FFE70498C007002866
:1052E00000F0BD80FFE70C980168012045F20842FC
:1052F000C5F60202914203904ED0FFE70C98016878
:10530000012045F21C42C5F602029142039043D0AF
:10531000FFE70C980168012045F23042C5F6020211
:105320009142039038D0FFE70C980168012045F2C4
:105330004442C5F60202914203902DD0FFE70C983B
:105340000168012045F25842C5F6020291420390DD
:1053500022D0FFE70C980168012045F26C42C5F6A7
:1053600002029142039017D0FFE70C9801680120D8
:1053700045F28042C5F60202914203900CD0FFE74D
:105380000C9800684AF66C31CAF2FD710844B0FA14
:1053900080F040090390FFE70398C00708B1FFE7DA
:1053A000FFE70C99022081F83500FFE70C990020F7
:1053B00081F83400FFE70C98006800680B900B98A8
:1053C0006FF310100B900C988068402803D1FFE712
:1053D0001020029008E00C9880688038B0FA80F0C5
:1053E000400980030290FFE702980C99CA680B6994
:1053F000D1F814C0D1F818E0CC694EEA040E4CEA9A
:105400000E0C43EA0C031A4340EAD200096A40EA50
:1054100011110B9808430B900B980C9909680860C0
:105420000C9908684AF6F832CAF2FD7210444CF63C
:10543000CD42CCF6CC42A0FB02026FF0030000EAA2
:105440009200C8650C98FCF713F908900C98C06D91
:1054500000F01F0101208840089948600AE00C997B
:10546000402048650C99032081F8350001208DF813
:1054700037004DE1FFE70C98016801201022C4F2CB
:1054800002029142019000F00381FFE70C9801684D
:1054900001202822C4F202029142019000F0F8801B
:1054A000FFE70C98016801204022C4F202029142F9
:1054B000019000F0ED80FFE70C9801680120582270
:1054C000C4F202029142019000F0E280FFE70C98E2
:1054D000016801207022C4F202029142019000F0A2
:1054E000D780FFE70C98016801208822C4F20202ED
:1054F0009142019000F0CC80FFE70C9801680120F8
:10550000A022C4F202029142019000F0C180FFE7A4
:105510000C9801680120B822C4F202029142019065
:1055200000F0B680FFE70C980168012040F21042BD
:10553000C4F202029142019000F0AA80FFE70C98A9
:105540000168012040F22842C4F202029142019017
:1055500000F09E80FFE70C980168012040F2404275
:10556000C4F202029142019000F09280FFE70C9891
:105570000168012040F25842C4F2020291420190B7
:1055800000F08680FFE70C980168012040F270422D
:10559000C4F20202914201907AD0FFE70C980168B0
:1055A000012040F28842C4F20202914201906FD081
:1055B000FFE70C980168012040F2A042C4F2020209
:1055C0009142019064D0FFE70C980168012040F2FD
:1055D000B842C4F202029142019059D0FFE70C9800
:1055E0000168012045F20842C5F60202914201908D
:1055F0004ED0FFE70C980168012045F21C42C5F629
:1056000002029142019043D0FFE70C98016801200B
:1056100045F23042C5F602029142019038D0FFE7D0
:105620000C980168012045F24442C5F602029142FD
:1056300001902DD0FFE70C980168012045F25842F7
:10564000C5F602029142019022D0FFE70C98016852
:10565000012045F26C42C5F602029142019017D03A
:10566000FFE70C980168012045F28042C5F602026E
:10567000914201900CD0FFE70C9800684AF66C311B
:10568000CAF2FD710844B0FA80F040090190FFE7CA
:105690000198C00790B3FFE70C98FCF7D1F80C987D
:1056A0008068802804D1FFE70C9900204860FFE75C
:1056B0000C990879096E08600C98416E806E4860FC
:1056C0000C98406888B1FFE70C98406808280CD80F
:1056D000FFE70C98FCF770F90C98C16E0020086089
:1056E0000C98016F406F486007E00C990020C86675
:1056F0000C9908670C994867FFE7FFE70C990020B1
:1057000048650C9A012182F835108DF83700FFE7C3
:105710009DF837000EB010BD80B588B00690059199
:105720000492039300208DF80B00069820B9FFE740
:1057300001208DF81F006CE3FFE7069890F8340015
:10574000012804D1FFE702208DF81F0061E30699CC
:10575000012081F83400FFE7FFE7069890F8350054
:10576000012840F04383FFE70699022081F83500C5
:10577000069900204865069800681021C4F20201CD
:10578000884200F08180FFE7069800682821C4F273
:105790000201884278D0FFE7069800684021C4F2F1
:1057A0000201884270D0FFE7069800685821C4F2D1
:1057B0000201884268D0FFE7069800687021C4F2B1
:1057C0000201884260D0FFE7069800688821C4F291
:1057D0000201884258D0FFE706980068A021C4F271
:1057E0000201884250D0FFE706980068B821C4F251
:1057F0000201884248D0FFE70698006840F2104155
:10580000C4F2020188423FD0FFE70698006840F2E8
:105810002841C4F20201884236D0FFE706980068AA
:1058200040F24041C4F2020188422DD0FFE70698C1
:10583000006840F25841C4F20201884224D0FFE7D8
:105840000698006840F27041C4F2020188421BD001
:10585000FFE70698006840F28841C4F202018842DE
:1058600012D0FFE70698006840F2A041C4F202019E
:10587000884209D0FFE70698006840F2B841C4F2B8
:105880000201884207D1FFE706980168086820F006
:105890000100086006E006980168086820F0010031
:1058A0000860FFE706980599049A039BFCF794F9B2
:1058B0000698016801201022C4F202029142019070
:1058C00000F0A380FFE70698016801202822C4F2B7
:1058D00002029142019000F09880FFE7069801686B
:1058E00001204022C4F202029142019000F08D801A
:1058F000FFE70698016801205822C4F20202914293
:10590000019000F08280FFE7069801680120702274
:10591000C4F202029142019077D0FFE70698016835
:1059200001208822C4F20202914201906DD0FFE76B
:10593000069801680120A022C4F20202914201905F
:1059400063D0FFE7069801680120B822C4F2020282
:105950009142019059D0FFE706980168012040F27A
:105960001042C4F20202914201904ED0FFE7069825
:105970000168012040F22842C4F2020291420190E3
:1059800043D0FFE706980168012040F24042C4F28C
:1059900002029142019038D0FFE706980168012089
:1059A00040F25842C4F20202914201902DD0FFE72A
:1059B00006980168012040F27042C4F2020291424E
:1059C000019022D0FFE706980168012040F288424A
:1059D000C4F202029142019017D0FFE706980168D5
:1059E000012040F2A042C4F20202914201900CD088
:1059F000FFE7069800684FF64831CBF6FD71084482
:105A0000B0FA80F040090190FFE70198C007A8B103
:105A1000FFE70698006800680B2161F344000699CF
:105A2000096808600698006C38B1FFE706980168BD
:105A3000086840F008000860FFE714E00698006876
:105A40000068052161F3430006990968086006981B
:105A5000006C38B1FFE706980168086840F0040060
:105A60000860FFE7FFE70698016801201022C4F2F2
:105A700002029142009000F00381FFE7069801685E
:105A800001202822C4F202029142009000F0F88026
:105A9000FFE70698016801204022C4F20202914209
:105AA000009000F0ED80FFE7069801680120582281
:105AB000C4F202029142009000F0E280FFE70698F3
:105AC000016801207022C4F202029142009000F0AD
:105AD000D780FFE70698016801208822C4F20202FD
